:0400000082EF3DF05E
:08000800046ED8CF05F0E0CF33
:1000100006F00001E9CF0CF0EACF07F0E1CF08F0DD
:10002000E2CF09F0D9CF0AF0DACF0BF0F3CF12F01C
:10003000F4CF13F0FACF14F000C00EF001C00FF0AF
:1000400002C010F003C011F0F2AA2AEF00F0F2B4DF
:1000500069EF00F00EC000F00FC001F010C002F018
:1000600011C003F00CC0E9FF07C0EAFF078E08C00B
:10007000E1FF09C0E2FF0AC0D9FF0BC0DAFF12C0DE
:10008000F3FF13C0F4FF14C0FAFF045006C0E0FFF2
:1000900005C0D8FF1000F2CF0DF0F29EF76AB00F46
:1000A000F66E000EF7220900F5500DBEF28E12001A
:1000B00030300000F2A40AD0010E01011427D8B09C
:1000C000152BD8B4162BD8B4172BF29400016AEF75
:1000D00000F0F0D72AEF00F0485454502F312E3161
:1000E00020254C552000417574686F72697A6174DF
:1000F000696F6E20526571756972656400004E6F9C
:100100007420466F756E6400536572766572204583
:1001100072726F720000436F6E74656E742D547945
:1001200070653A2000004C6173742D4D6F646966F0
:100130006965643A205475652C203135204E6F7600
:1001400020313939342031323A34353A3236204789
:100150004D540D0A000043616368652D436F6E7452
:10016000726F6C3A206E6F2D63616368650D0A00D3
:10017000436F6E6E656374696F6E3A20636C6F7364
:10018000650D0A006572726F723530302E68746DBD
:1001900000003C68746D6C3E3C626F64793E3C6864
:1001A000313E353030204572726F723C2F68313EDF
:1001B0003C68723E3C703E496E7465726E616C20A4
:1001C000736572766572206572726F722E3C2F7045
:1001D0003E3C2F626F64793E3C2F68746D6C3E002C
:1001E000696E6465782E68746D006572726F723422
:1001F00030342E68746D00006572726F7235303065
:100200002E68746D00006572726F723530302E6822
:10021000746D00006572726F723530302E68746DC7
:10022000000057656C636F6D650A00000C436C69D4
:10023000656E740A646973636F6E6E65637465647A
:1002400000006469006F6400726400726100776C82
:1002500000000C50726F6772616D20656E64000063
:1002600001013E5303E1010E3E6F3F9100013EEF5D
:1002700001F04E8C03017B6B0001F2D74F6A200E18
:10028000506E300E516E400E526E500E536E600E18
:10029000546EF6EF3DF0D76AD66AF194F294F28A82
:1002A000870ED56EF8EF3DF00301EA6BEA510E08B8
:1002B00044E3D89001010F310301EF6F01010E31CA
:1002C0000301EE6F01010D310301ED6F01010C31EE
:1002D0000301EC6F01010C51010B006E016A026A0F
:1002E000036A000ED88000540301F06F000E015421
:1002F000F16F000E0254F26F000E0354F36FF051D1
:10030000010B006E016A026AF351D00B036E0050BC
:10031000EC1901010C6F01500301ED1901010D6F82
:1003200002500301EE1901010E6F03500301EF1992
:1003300001010F6F0301EA2BB9D701010CC101F0D4
:100340000DC102F0000112000FC198F30EC197F326
:100350000DC196F30CC195F3030191530BE1925338
:1003600009E1935307E1945305E1946B936B926B0E
:10037000010E916F94C30FF193C30EF192C30DF16F
:1003800091C30CF1996B99510F0805E300018CDFC3
:100390000301992BF8D795C300F096C301F097C3DA
:1003A00002F098C303F000011200C2CF8AF3C0CF5D
:1003B0008BF3D5CF8CF3D6CF8EF3D7CF8DF3010E41
:1003C000C26E3F0EC06E880ED56E03017B6B856BCF
:1003D000846B836B826B816B806B000165DF030133
:1003E000896B886B02C087F301C086F3D76AD66A2F
:1003F000C2820400C2B2FED7D6CF7EF3D7CF7FF33E
:10040000000152DF02C07DF301C07CF303017E5185
:1004100082277F518323000E8423852385530DE19A
:1004200084511D0819E2FF0A08E18351830814E290
:10043000FF0A03E182517F080FE2000135DF01501E
:100440000301861B0250871B00012EDF01500301B0
:10045000881B0250891B37D07E51805D04E17F519B
:10046000815D01E1C3D77E51805D006E7F5181596E
:10047000036E00507C258F6F03507D21906F946B2D
:10048000936B926F8FC391F300015EDF7FC381F3A3
:100490007EC380F3D8900301863787378837893742
:1004A000000102DF02C090F301C08FF3030101508D
:1004B000800B006E036A0050031001E086817B2BE5
:1004C00001E101D093D78AC3C2FF8BC3C0FF8DC3A4
:1004D000D7FF8EC3D6FF8CC3D5FF86C300F087C37A
:1004E00001F088C302F089C303F000015FEF0AF056
:1004F0008B929E9604012A51A009C96E9EA6FED732
:100500009E96C9CF2CF42BC4C9FF9EA6FED79E96FB
:10051000C9CF2CF48B8200011200030EEA6E940EF8
:10052000E96EEF500DE0020E016E006A002EFED75C
:10053000012EFBD7970E006E002EFED7EF2EF3D7BD
:1005400012001E0E04012A6F200E2B6F0001D0DF57
:10055000010E0301946F0001E0DF8B929E96C96843
:100560009EA6FED79E96C9CF7CF38B82010E030117
:10057000946F0001D2DFA1EF03F08B929E960401ED
:1005800030C4C9FF9EA6FED79E96C9CF31F4C96A72
:100590009EA6FED79E96C9CF31F48B8231C401F05E
:1005A000000112008B929E96040135514009C96EDC
:1005B0009EA6FED79E96C9CF37F436C4C9FF9EA625
:1005C000FED79E96C9CF37F48B82000112008B9222
:1005D0009E967A0EC96E9EA6FED79E96C9CF34F41B
:1005E00033C4C9FF9EA6FED79E96C9CF34F48B8232
:1005F00012008B929E9604012A518009C96E9EA614
:10060000FED79E96C9CF2CF42BC4C9FF9EA6FED759
:100610009E96C9CF2CF48B82000112001F0E04019C
:100620002A6F030E2B6F000163DF040E0401176FA6
:10063000140E166F010E1625E96E000E1721EA6ED4
:10064000EFCF18F41F0E2A6F18C42BF40001D1DF6E
:1006500012008B929E9603019FC3C9FF9EA6FED7F0
:100660009E96C9CFA0F3C96A9EA6FED79E96C9CF13
:10067000A0F3C96A9EA6FED79E96C9CFA0F38B822F
:10068000A0C301F000011200020E0401156F140E48
:10069000146F0001C3DF140E0401356F7CC336F400
:1006A000000180DF030E0301806F7D0E7F6FE96E16
:1006B00080C3EAFFEFCF81F3160E0401356F81C3CB
:1006C00036F400016FDF030E0301806F7D0E7F6F34
:1006D000010E7F25E96E000E8021EA6EEFCF81F3D7
:1006E000170E0401356F81C336F400015BDF030E82
:1006F0000401156F0A0E146F000190DF0A0E03014A
:100700009F6F0001A6DF01C07FF3000E030101B05F
:10071000010E000AD8B402D00001F0D70401156B15
:10072000146B00017BDF12008B8294929496949A52
:1007300094888B8094909E96200EC66EC78CC79E20
:1007400000D71D0E0401306F000117DF01C07BF3DD
:1007500003017BA702D00001F3D77B51FF0A010BF5
:10076000D8B402D00001ECD701010B851F6B1E6BC2
:10077000080E0401356F366B000114DF090E040109
:10078000356F366B00010EDF0C0E0401356FD50E90
:10079000366F000107DF0D0E0401356F110E366F45
:1007A000000100DF0A0E0401356FD50E366F00011F
:1007B000F9DE0B0E0401356F110E366F0001F2DE0B
:1007C000040E0401356FD60E366F0001EBDE050E08
:1007D0000401356F110E366F0001E4DE020E0401D4
:1007E000356FD60E366F0001DDDE030E0401356F66
:1007F000110E366F0001D6DE0401336B0001E7DE17
:10080000020E0401156F146B000108DF0401356B43
:100810000D0E366F0001C6DE020E0401356F320E7A
:10082000366F0001BFDE040E0401356F120E366F05
:100830000001B8DE030E0401356F400E366F000173
:10084000B1DE090E0401356F3F0E366F0001AADEDE
:10085000060E0401356F120E366F0001A3DE070E7F
:100860000401356F0C0E366F00019CDE0A0E040188
:10087000356FEE0E366F000195DE0B0E0401356FFD
:10088000050E366F00018EDE030E0401156F040E97
:10089000146F0001C3DE040E0401356F4FC036F43F
:1008A000000180DE050E0401356F50C036F40001F2
:1008B00079DE020E0401356F51C036F4000172DE9C
:1008C000030E0401356F52C036F400016BDE0401E3
:1008D000356B53C036F4000165DE010E0401356F3F
:1008E00054C036F400015EDE150E0401356F366B20
:1008F000000158DE120E0401306F00013EDE01C01F
:1009000022F1100E03017C6F010E7E6F7D6B0001E2
:10091000BBDE140E03017C6F340E7E6F720E7D6F92
:100920000001B2DE03017C6B7E6B7D6B0001ACDEEF
:100930000401156B146B000171DE1F0E04012A6F98
:10094000040E2B6F000155DE76EF0AF003019D5176
:10095000060801E23BD09D51170DF3509F6B9E6F2F
:100960000C0E9E25016E000E9F21036E0150560F46
:10097000E96E000E0320EA6EEC6AED52EF6A9D51BB
:10098000170DF3509F6B9E6F560E9E25E96E000E5D
:100990009F21EA6EEE52EE52EC6AED52EF6AED5292
:1009A000EF6AED52EF6A9D51170DF3509F6B9E6FEA
:1009B0000E0E9E25016E000E9F21036E0150560FF4
:1009C000E96E000E0320EA6E040EEF6E00011200C5
:1009D00003017B6B7B51060807E37BC39DF300019A
:1009E000B5DF03017B2BF6D701013583000178EFDA
:1009F0000AF0016603D0026602D007D0022A00C0C6
:100A0000EEFF012EFCD7022EFAD712000301D051BF
:100A100001019C5D01E149D09C51FE081EE09C5102
:100A20001C0DF350036A590F016E010E032201C021
:100A3000D1F3030103C0D2F3010ED46FD90E03C06A
:100A4000EAFF01C0E9FFD4C3E2FFE16E1C0E016EB4
:100A5000E6CFEEFF012EFCD70101D0C39CF10301CC
:100A6000D051FE0803E1010120D00301010ED26F35
:100A7000D90ED16FD0511C0DF350036A590F016E7E
:100A8000010E032201C0D3F303C0D4F3D2C3EAFFA3
:100A9000D1C3E9FF03C0E2FF01C0E1FF1C0E016EFC
:100AA000E6CFEEFF012EFCD7010100011200020E7D
:100AB0000401306F000161DD01C021F4030E040167
:100AC000306F00015ADD01C022F4040E0401246FCE
:100AD0001F0E236FE96E24C4EAFFEFCF25F4020E48
:100AE000356F25C436F400015DDD040E0401246F6A
:100AF0001F0E236F010E2325E96E000E2421EA6EDE
:100B0000EFCF25F4030E356F25C436F400014ADD1E
:100B1000040121C401F022C402F0000112008B92F2
:100B20009E967A0EC96E9EA6FED79E96C9CF38F4C1
:100B300004013651371113E034C4E9FF35C4EAFF2C
:100B4000EFCFC9FF342BD8B4352B3651D8B4370783
:100B500036079EA6FED79E96C9CF38F4EAD78B8279
:100B6000000112000401306B000107DD01C021F417
:100B7000010E0401306F000100DD01C022F4040EFB
:100B80000401246F1F0E236FE96E24C4EAFFEFCF28
:100B900025F4356B25C436F4000104DD040E040190
:100BA000246F1F0E236F010E2325E96E000E2421F2
:100BB000EA6EEFCF25F4010E356F25C436F400013F
:100BC000F1DC040121C401F022C402F00001120092
:100BD0008B929E963A0EC96E0401376B366B32517A
:100BE000331104E03251D8B4330732079EA6FED742
:100BF0009E96C9CF38F43751355D1EE303E1345179
:100C0000365D1AE2C96A362BD8B4372B325133110C
:100C10000DE0322BD8B4332B9EA6FED79E9632C45D
:100C2000E9FF33C4EAFFC9CFEFFF05D09EA6FED788
:100C30009E96C9CF38F4DFD78B8236C401F037C413
:100C400002F0000112008B929E963A0EC96E9EA68B
:100C5000FED79E96C9CF2AF4C96A9EA6FED79E9655
:100C6000C9CF2AF48B8204012AC401F000011200CA
:100C70000401299129931F3D12D0203D10D02981D4
:100C8000020E306F000179DC0401206B01C01FF4FB
:100C9000030E306F000171DC01C020F40401213D1E
:100CA00011D0223D0FD02983306B000166DC040196
:100CB000226B01C021F4010E306F00015EDC01C027
:100CC00022F404012453D8A46FD023510108D8A0E2
:100CD0006BD029B30DD0306B00014FDC01C025F47F
:100CE000010E0401306F000148DC01C026F404014C
:100CF00029B10ED0020E306F00013FDC01C027F495
:100D0000030E0401306F000138DC01C028F4040137
:100D1000356B21C436F4000145DC010E0401356F4A
:100D200022C436F400013EDC020E0401356F1FC4FC
:100D300036F4000137DC030E0401356F20C436F4AD
:100D4000000130DC040124C403F02351D8B424078B
:100D50002307031009E0000176DF01C02AF401C077
:100D600033F435DCEFD7040129B30DD0356B25C43E
:100D700036F4000117DC010E0401356F26C436F489
:100D8000000110DC040129B10ED0020E356F27C41A
:100D900036F4000107DC030E0401356F28C436F475
:100DA000000100DC0401A9D029A116D023511F2580
:100DB000276F24512021286F020E356F27C436F487
:100DC0000001D2EC02F0030E0401356F28C436F4A2
:100DD0000001D2EC02F00401010E215D006E000E54
:100DE0002259036E00502327035024231F0E306F17
:100DF0000001BDEC02F001C02AF4000E040101BAAA
:100E0000010E000AF3E1100E356F21C436F4000123
:100E1000D2EC02F0110E0401356F22C436F4000149
:100E2000D2EC02F0140E0401356F1FC436F4000139
:100E3000D2EC02F0150E0401356F20C436F4000127
:100E4000D2EC02F004012251110810E303E1215118
:100E5000D5080CE32451100809E2FF0A03E12351ED
:100E6000D50804E2D60E235F110E245B120E356FF7
:100E700023C436F40001D2EC02F0130E0401356FE6
:100E800024C436F40001D2EC02F01F0E04012A6FD4
:100E9000100E2B6F000178EC02F01F0E04012A6F78
:100EA000200E2B6F0001F9EC02F0040129A325D0DC
:100EB000232BD8B4242B2251110810E303E1215134
:100EC000D5080CE32451100809E2FF0A03E123517D
:100ED000D50804E2D60E235F110E245B356B23C4C4
:100EE00036F40001D2EC02F0010E0401356F24C487
:100EF00036F40001D2EC02F00401000112001F0ED2
:100F00000401306F0001BDEC02F001C01FF4000EBF
:100F1000040101BA010E000A02E0000E01D0010E28
:100F2000016E0001120004011C51010A000103E0DE
:100F3000010A3AE06AD004011951010A000103E0F4
:100F4000010A1AE030D018C4EAFF17C4E9FF1BC435
:100F5000E2FF1AC4E1FF1EC402F01DC401F00152F9
:100F600002E0022A02D0025206E0E6CFEEFF012E96
:100F7000FCD7022EFAD717D00401173D03D0183D35
:100F800001D007D018C420F417C41FF400018FDD6E
:100F900004011BC435F41AC434F41EC437F41DC450
:100FA00036F40001BCDD31D004011951010A000101
:100FB00003E0010A19E028D004011A3D03D01B3DCB
:100FC00001D007D01BC420F41AC41FF40001CADDED
:100FD000040118C433F417C432F41EC435F41DC41C
:100FE00034F40001F5DD10D018C420F417C41FF448
:100FF0001BC422F41AC421F41EC424F41DC423F417
:1010000037DE7DDF0152FDE000D0120001019C516E
:10101000F55D01E165D0F551FE083FE0F5511C0D8D
:10102000F3500401116B106F590E1025E96E010E7B
:101030001121EA6EECCF13F4ED52EFCF12F4270E2C
:10104000125F000E135B0101F5511C0DF3500401FA
:10105000156B146F1B0E1425016E000E1521036E07
:101060000150590FE96E010E0320EA6EEFCF14F420
:10107000010E166F750E156F13C418F412C417F411
:1010800014C419F416C41BF41A6F010E1C6F1E6BE6
:10109000270E1D6F000147DF01019CC1F5F1010E14
:1010A0000401116F750E106F270E0101D95D040147
:1010B000126F000E0101DA590401136F11C418F404
:1010C00010C417F4010E196F13C41BF412C41AF4E0
:1010D000F4C11CF41E6B270E1D6F000124DF0101FB
:1010E0000001120093DF86C1F3F185C1F2F1DAC18C
:1010F000E0F1D9C1DFF1DAC1E2F1D9C1E1F1DCC13E
:10110000E4F1DBC1E3F1DCC1E6F1DBC1E5F10101B2
:10111000F0A702D0040E01D00D0EEF6FF80EF015FF
:10112000F06FF099F09BF09DF09FF191F193F195A4
:10113000F197F1899791979397979799DAC182F1EF
:10114000D9C181F1010E0301E76F790EE66F016EDF
:10115000E7C303F0E86FE7C3E9F3000154EC01F0E3
:10116000E9C3EAFFE8C3E9FF02C0ECFFED5201C0AA
:10117000EFFF010E0301E76F790EE66F020EE62521
:10118000016E000EE721036E01C0E8F3E96F000174
:1011900054EC01F0E9C3EAFFE8C3E9FF02C0ECFF49
:1011A000ED5201C0EFFF010196699569886B010E50
:1011B000876F00011200170E0301856FC80E846F40
:1011C000010E876F9D0E866F87C3EAFFE96E006A86
:1011D000026A3C0E016E00010CDC03017C6B7B6B30
:1011E0007B53D8A4B3D07BC3D0F300010FDC030141
:1011F0007B51060DF350876B866F010E8625016EBD
:10120000000E8721036E01501C0FE96E000E0320B3
:10121000EA6EEFCF83F37B51060DF350876B866F39
:10122000020E8625016E000E8721036E01501C0FF1
:10123000E96E000E0320EA6EECCF7EF3ED52EFCFA5
:101240007DF37B51060DF350876B866F040E862568
:10125000016E000E8721036E01501C0FE96E000E17
:101260000320EA6EECCF80F3ED52EFCF7FF3835192
:10127000000A000101E027D085C382F384C381F313
:10128000270E03017D25866F000E7E21876F010EDC
:101290008627000E87237F51862780518723010EE2
:1012A0008625016E000E8721036E015084270350AE
:1012B000852385511E0805E2FF0AFBE18451FC08E5
:1012C000F8E303D00001FFD7030183C3F4F1270E35
:1012D00081250101D96F000E030182210101DA6F1E
:1012E00003017D510101D9250301866F7E51010162
:1012F000DA210301876F010E86250101DB6F000EE5
:10130000030187210101DC6F03017F510101DB250E
:10131000DD6F030180510101DC21DE6F0D0EEF6FE7
:10132000F097000173DE03017B51060DF350876BCC
:10133000866F1C0E8625E96E000E8721EA6EEFCFC0
:101340009BF10001CFDE03017B2B4AD7000179EF2F
:101350000AF001010BB90BD00B8903019C6B9C5364
:1013600005E101013D6903019C2BF9D701013D3DD8
:1013700001D007D03DC19DF30001A6EC04F00101AE
:101380003D69010E3E6F3F6B3F893F8300011200B4
:1013900001013D3D01D007D03DC19DF30001A6EC08
:1013A00004F001013D693E6B000183EF0AF0030187
:1013B000866B865333E186C3D0F3000106EC05F05B
:1013C0000101EF510D0801E026D000011FDE0301ED
:1013D000855101019B5D01E01ED0020E996F180E30
:1013E000986F030182530EE184C386F183C385F1B4
:1013F0000101F087040EEF6F84C3F3F183C3F2F1B0
:1014000005D00301FE0E016E0BD00101030186C35E
:1014100001F006D001010301862BCBD7FE0E016E31
:10142000000138EF0AF003017B6B7BBF03D07B51D7
:1014300000083AE3036A7B51080FE96E020E0320AD
:10144000EA6EEF68036A7B51070F016E020E0322FA
:1014500001C07CF303C07DF3816B806B7F6B7E6B7F
:10146000826B846B500E836F080E856F00019FD7CF
:101470007DC3EAFF7CC3E9FF01C0EFFF036A0301FC
:101480007B51070FE96E020E0320EA6EEF50FE0853
:1014900009E0036A7B51080FE96E020E0320EA6E31
:1014A000010EEF6E7B2BC1D7000184EF0AF0010122
:1014B000006B4E8E0BB117D00001D5EF01F003C0C9
:1014C0007EF302C07DF301C07CF300C07BF303C058
:1014D00094F302C093F301C092F300C091F3A4EC23
:1014E00001F001010B81000194EF03F0E8EF04F03B
:1014F00062D603019B6B00012CDF4EBC04D00301BC
:101500007B6B000145D78FD7FCEF3DF003019BB10A
:1015100002D08C9801D08C8895989BB302D08C9A7D
:1015200001D08C8A959A9BB502D08C9C01D08C8C72
:10153000959C9BB702D08C9E01D08C8E959E00000E
:101540008C82959200D000D08C929592000112006E
:1015500003019C6B9588000E83B8010E9C13958A3D
:10156000000E83BA010E006ED890003600509C1316
:10157000958C000E83BC010E006E00360036FC0E0A
:10158000001600509C13958E000E83BE010E006E57
:10159000003600360036F80E001600509C139CC32F
:1015A00001F0000112009588958A958C958E8C84A7
:1015B000959400008C8295920000CADF01C09BF3D5
:1015C0008C92959200008C82959200D0C1DF01C070
:1015D0009AF38C9295929598959A959C959E030175
:1015E0009B39006EF00E001600509A11016E00013A
:1015F00000EF0BF09592959095948C909590D3D7A1
:1016000001C09AF3030101AE02D00001F8D798534C
:1016100002E18C9001D08C80959000008C94959480
:1016200000008C92959299399A6F0F0E9A179AC36F
:101630009BF300016BDF030199510F0B9A6F9B6FB6
:10164000000164DF1200280E03017C6F0C0E7D6F19
:10165000010E7E6F060E7F6F8C9295928C90959006
:101660008C9495949598959A959C959E9592959025
:1016700095940F0E946F00018DEC02F0010E0301A2
:101680007B6F7B5103080DE3030E9B6F00013EDF70
:10169000050E0301946F00018DEC02F003017B2B1A
:1016A000F0D7020E9B6F000131DF050E0301946F2E
:1016B00000018DEC02F003017B6B7B51030811E309
:1016C000036A7B517C0FE96E030E0320EA6EEFCFB5
:1016D00080F3986B80C399F300018CDF03017B2BAF
:1016E000ECD70001FEEF3DF003017B5307E0986B60
:1016F0000F0E996F00017EDF06D00301986B0C0E70
:10170000996F000177DF04EF3EF00301952D01D0C2
:1017100003D0400E966F01D0966B010E945D962714
:1017200096518009976F986B996F000163DF1200E3
:1017300003019351070A000107E00B0A0CE0060AB7
:1017400017E0020A1DE023D0010E0301946F956F8C
:101750000001DBDF23D00301986B010E996F0001BC
:1017600049DF020E0301946F00018DEC02F016D0E8
:10177000010E0301946F020E956F0001C6DF0ED0BB
:101780000301986B100E996F000134DF07D0010E32
:101790000301986F93C399F300012CDF1200090035
:1017A000F5520CE0F6CF7BF3F7CF7CF3F5CF93F354
:1017B000BFDF7BC3F6FF7CC3F7FFF1D71200020E39
:1017C0000401156F140E146F00010EEC03F0140EDB
:1017D0000401356F9CC336F40001D2EC02F0120E06
:1017E0000401356F010E366F0001D2EC02F0030EDA
:1017F0000401156F0A0E146F00010EEC03F00A0EBF
:1018000003019F6F000129EC03F001C09FF3000E5C
:10181000030101B0010E000AD8B402D00001EFD7D5
:10182000020E0401156F140E146F00010EEC03F08C
:10183000120E0401356F366B0001D2EC02F0180E67
:1018400003019F6F000129EC03F001C09DF3190E05
:1018500003019F6F000129EC03F001C09EF3040116
:10186000156B146B00010EEC03F003019DC301F036
:101870009EC302F0000142EF0CF0010E03019C6FC9
:1018800000019DD701C09CF3000E030101B4010EBD
:10189000016E000112000301A76B560EA66FA56B27
:1018A000A5510608D8A0A1D00C0EA625E96E000E01
:1018B000A721EA6EECCFA9F3ED52EFCFA8F3A8531E
:1018C000D8A48DD0A953D8A48AD00C0EA625E96E31
:1018D000000EA721EA6EA2C3ECFFED52A1C3EFFFF9
:1018E000A15323E1A25321E1010138511F0805E270
:1018F000FF0A06E13751000803E338510F0803E3FC
:10190000100E386F376B0C0E0301A625E96E000E22
:10191000A721EA6E010138C103F03751372BD8B443
:10192000382BEF6E03C0ECFF0301A05308E09C537B
:1019300021E19D531FE19E531DE19F531BE1A7C36E
:1019400003F0A6C3A8F3A7C3A9F3A7C3EAFFA6C3DE
:10195000E9FF0068026A0A0E016E0001F9EC04F06A
:101960000E0E0301A625E96E000EA721EA6E050EF4
:10197000EF6E25D0A051040A000101E01FD0030141
:10198000A7C303F0A6C3A8F3A7C3A9F3A7C3EAFF9D
:10199000A6C3E9FF9DC3E2FF9CC3E1FF0A0E016EEF
:1019A000E6CFEEFF012EFCD70E0EA625E96E000E47
:1019B000A721EA6E050EEF6E02D0000103010A0EA8
:1019C000A625E96E000EA721EA6EA4C3ECFFED5236
:1019D000A3C3EFFFA5C355F0A5C301F008D0170EB0
:1019E000A627D8B0A72BA52B5BD7FF0E016E000151
:1019F00012001F0E0401306F0001BDEC02F001C0A7
:101A000010F4000E040101B6010E000A02E0000EFF
:101A100001D0010E016E00011200080E03019D2588
:101A20009F6F000E9E21A06FD70E9F27110EA0233F
:101A30000E0E9F27000EA023140E9F27000EA0233A
:101A4000A0C320F49FC31FF4000157EC05F09EC310
:101A500032F19DC331F143EF0DF0CBDF015204E1D0
:101A6000000E016E026E1DD003019C510101305D1C
:101A70000BE09CC330F10001F86BF76B03019E6B28
:101A80009D6B0001CAD701019CC355F0C00ED880E0
:101A90000001F755006E050EF855036E00C001F009
:101AA000026E12000301AD6BAE6B010EAF6FDA6A0E
:101AB000D96A030EB26FA50EB16F030EEA6EA90EBE
:101AC000E96EB2C3E2FFB1C3E1FFAFC3B0F3D89098
:101AD000E550EE02F350AD23F450AE23B02FF7D70C
:101AE000ADC3DEFFAEC3ADF3AE6BD8B0AE2BB12B42
:101AF000D8B4B22BAF2BAF510508DFE10001B8EF2E
:101B00000DF0016A026A006A036A0301AB5102E147
:101B1000AA5118E0100EAC6FD890A837A93700363C
:101B20000336AB51035C02E1AA51005C07E3AA5102
:101B3000005ED8A00306AB51035ED88001360236A2
:101B4000AC2FEAD70001D8EF0DF01BC0A8F31AC0E4
:101B5000A7F319C0A6F318C0A5F3410E0301AC6F9B
:101B6000C60EAB6F4E0EAA6F6D0EA96F00019AD70D
:101B7000390E03010024186E300E0120196E000E7C
:101B800002201A6E000E03201B6E1AC000F01BC04C
:101B900001F0026A036A1BC0A7F31AC0A6F31BC0B8
:101BA000A9F31AC0A8F37F0EAB6FAA690001A9D7E9
:101BB00000C001F003C002F012000101325104081C
:101BC00008E2FF0A03E13151BF0803E2000E016E93
:101BD0001DD0A5C333F40001E7EC02F00101312B65
:101BE000D8B4322B0001F8510101325D0DE308E158
:101BF00031510001F75DD8A002D0010105D00101EB
:101C000032C1F8F031C1F7F0010E016E000112008F
:101C1000C00ED880010131550301A96F050E0101E5
:101C200032550301AA6FAA51A85D08E303E1A75149
:101C3000A95D04E2AAC3A8F3A9C3A7F3A7510101B0
:101C400031270301A851010132230001F85101019C
:101C5000325D0DE308E131510001F75DD8A002D0FB
:101C6000010105D0010132C1F8F031C1F7F0A6C37E
:101C700035F4A5C334F4A8C337F4A7C336F4000180
:101C80008FEC05F00301A7C301F0A8C302F0000127
:101C9000120030C432F42FC431F432C433F431C4EE
:101CA00032F433C431F4040131C401F032C402F01F
:101CB00000011200020E04012925016E000E2A21E6
:101CC000036E01C02BF42C6F020E2925E96E000E65
:101CD0002A21EA6EECCF2EF4ED52EFCF2DF42EC474
:101CE00030F42DC42FF40001D4DF2CC4EAFF2BC440
:101CF000E9FF02C0ECFFED5201C0EFFF040E04014A
:101D00002925016E000E2A21036E01C02BF42C6FD1
:101D1000040E2925E96E000E2A21EA6EECCF2EF47E
:101D2000ED52EFCF2DF42EC430F42DC42FF400016A
:101D3000B0DF2CC4EAFF2BC4E9FF02C0ECFFED5278
:101D400001C0EFFF0A0E04012925016E000E2A21B1
:101D5000036E01C02BF42C6F0A0E2925E96E000ECC
:101D60002A21EA6EECCF2EF4ED52EFCF2DF42EC4E3
:101D700030F42DC42FF400018CDF2CC4EAFF2BC4F7
:101D8000E9FF02C0ECFFED5201C0EFFF1200D89056
:101D900004012E31306F2D312F6F2CC432F42BC43F
:101DA00031F4366B356B346B336B30C403F02F5129
:101DB000D8B430072F0703101EE032C403F031C43B
:101DC00000F0020E3127D8B0322B00C0E9FF03C06B
:101DD000EAFFECCF03F0ED52EFCF00F003C001F0CB
:101DE000026A036A0050332701503423025035231E
:101DF00003503623DAD72D51010B006E036A0050D1
:101E0000031013E032C403F031C4E9FF32C4EAFF27
:101E1000EFCF00F0016A026A036A005033270150D5
:101E2000342302503523035036233A6B396B34C4C4
:101E300038F433C437F435C400F036C401F0026A14
:101E4000036A35513325336F36513421346F0250D4
:101E50003921356F03503A21366F355133273651CA
:101E6000342334C403F0031E3351FF0A016E03C050
:101E700002F000011200020E0401356FD70E366F1A
:101E80000001D2EC02F0030E0401356F110E366F23
:101E90000001D2EC02F0E40E04013027110E3123D0
:101EA000040E336F300E326FE96E33C4EAFFEFCFAA
:101EB00034F4060E356F34C436F40001D2EC02F06F
:101EC000040E0401336F300E326F010E3225E96EBD
:101ED000000E3321EA6EEFCF34F4070E356F34C4B1
:101EE00036F40001D2EC02F02EC435F42DC434F4E3
:101EF0000401376B060E366F00018FEC05F004010C
:101F0000336B4F0E326F33C435F4346F376B060EBC
:101F1000366F00018FEC05F0080E0401336F0001ED
:101F2000E7EC02F004012F5302E1000E01D0060E8F
:101F3000326F336F0001E7EC02F01200140E010162
:101F4000256F450E0401156F166B140E1325176FC0
:101F5000000E1421186F0101232BD8B4242B24C1A7
:101F60001AF423C119F404011C6B1B6B640E1D6F62
:101F700012C41EF4206B1F6B25C024F424C023F46C
:101F800023C022F422C021F410C4E9FF11C4EAFFE7
:101F9000EFCF25F4ECCF26F4ECCF27F4ECCF28F4E8
:101FA000040E2A6F150E296F000184DE040E040151
:101FB0002A6F150E296F2AC42CF42B6F2E6B140E6A
:101FC0002D6F0001E4DE02C020F401C01FF4040EF6
:101FD00004011025016E000E1121036E01C029F4C9
:101FE0002A6F140E13252B6F000E14212C6F03C0C3
:101FF0002EF401C02DF42F6B316F2BC430F400018F
:102000003ADF040E04012A6F150E296F2AC435F435
:10201000346F376B140E366F00018FEC05F0000E35
:10202000016E026E12001F0E04012A6F800E2B6FCC
:102030000001F9EC02F01F0E04012A6F800E2B6FD5
:10204000000178EC02F01C0E04012A6F0A0E2B6FBF
:10205000000178EC02F01F0E04012A6F080E2B6FAE
:102060000001F9EC02F001012251050804E02251BF
:102070000608D8A4F2D00401116B106B1C0E306F4F
:102080000001BDEC02F001C01EF4040101500A0B76
:102090000AE1102BD8B4112B1151030804E3EEE12F
:1020A0001051E708EBE21C0E306F0001BDEC02F0AE
:1020B00001C01EF4000E040101B2010E000A0AE183
:1020C00011510208D8B0C8D0FF0A04E11051E70846
:1020D000D8B0C2D01F0E2A6F080E2B6F000178EC0B
:1020E00002F00401306B0001BDEC02F001C012F4FB
:1020F000010E0401306F0001BDEC02F001C013F4C9
:10210000060E0401306F0001BDEC02F001C014F4B2
:10211000070E0401306F0001BDEC02F001C015F4A0
:102120000401142BD8B4152B356B14C436F40001FC
:10213000D2EC02F0010E0401356F15C436F4000133
:10214000D2EC02F0040E04011F6F160E1E6F1FC4A6
:1021500033F4326F356B070E346F0001E8EC05F095
:1021600004011D6B1D510F0868E31C0E306F000148
:10217000BDEC02F001C01EF4000E040101B2010E1C
:10218000000A56E019AB54D01F0E2A6F800E2B6F39
:102190000001F9EC02F01F0E04012A6F800E2B6F74
:1021A000000178EC02F01C0E04012A6F0A0E2B6F5E
:1021B000000178EC02F01F0E04012A6F080E2B6F4D
:1021C0000001F9EC02F01C0E0401306F0001BDECBF
:1021D00002F001C01EF4040101500A0BD8A402D081
:1021E0000001F1D71F0E2A6F080E2B6F000178EC4B
:1021F00002F00401356B14C436F40001D2EC02F095
:10220000010E0401356F15C436F40001D2EC02F062
:10221000040E04011F6F160E1E6F1FC433F4326FBD
:10222000356B070E346F0001E8EC05F003D00401B4
:1022300004D0000104011D2B95D7356B12C436F470
:102240000001D2EC02F0010E0401356F13C436F424
:102250000001D2EC02F0040101010001120055500E
:10226000170DF350036A560F016E000E032201C0D2
:10227000ABF3030103C0ACF3080E0001F725030123
:10228000AD6F000E0001F8210301AE6F0C0EAB25FF
:10229000E96E000EAC21EA6EECCFB0F3ED52EFCF59
:1022A000AFF3B0C330F4AFC32FF40001F2DC02C0CF
:1022B000A4F301C0A3F30A0E0301AB25E96E000EDF
:1022C000AC21EA6EECCFB0F3ED52EFCFAFF3B0C379
:1022D00030F4AFC32FF40001DCDC02C0A6F301C070
:1022E000A5F3AEC330F4ADC32FF4D3DC02C0A8F322
:1022F00001C0A7F30301AA6BA96B110E0401206FA3
:10230000E50E1F6F000157EC05F0ABC301F0ACC345
:1023100003F0ABC3AFF3ACC3B0F3ACC311F4ABC3C6
:1023200010F4110E0401126FAEC314F4ADC313F414
:10233000000104DE030E0301B06FA30EAF6FB0C344
:1023400035F4E8CF34F40401376B080E366F000122
:102350008FEC05F068DEF86BF76B01013069000166
:1023600023EF13F003019C2D12D00001A5EC0DF01A
:1023700002C0A4F301C0A3F3A5EC0DF0A3C33BF18D
:10238000A4C33CF101C039F102C03AF10301010ECE
:10239000A56F000112DC010E0301A56F00010DDC29
:1023A000060E0301A56F000108DC0301A56B000107
:1023B00004DC39C1A3F339C1A5F3DDEC0DF03AC15A
:1023C000A3F33AC1A5F3DDEC0DF03BC1A3F33BC190
:1023D000A5F3DDEC0DF03CC1A3F33CC1A5F3DDECAE
:1023E0000DF00301A56B0001DDEC0DF00301A56B01
:1023F0000001DDEC0DF001013FA902D0000E01D07B
:10240000800E0301A36FA56F0001DDEC0DF0030149
:10241000A56B0001DDEC0DF003019C51030811E1F7
:102420009D530FE0010EA46F4C0EA36FA4C3A6F33F
:10243000A56FA86B040EA76F000108EC0EF014D076
:102440000301A56B0001DDEC0DF00301A56B00019C
:10245000DDEC0DF00301A56B0001DDEC0DF00301D7
:10246000A56B0001DDEC0DF003019E6B9E510B0886
:1024700007E3A56B0001DDEC0DF003019E2BF6D701
:10248000A46B4F0EA36FA4C3A6F3A56FA86B060E93
:10249000A76F000108EC0EF003019E6B9E51C90866
:1024A00007E3A56B0001DDEC0DF003019E2BF6D7D1
:1024B000630EA56F0001DDEC0DF0820E0301A56F28
:1024C0000001DDEC0DF0530E0301A56F0001DDEC02
:1024D0000DF0630E0301A56F0001DDEC0DF0350E6C
:1024E0000301A56F0001DDEC0DF0010E0301A56FE6
:1024F0000001DDEC0DF09CC3A5F3DDEC0DF0030154
:102500009C2D03D001013F9503019C5103081EE15E
:102510009D531CE1360EA56F0001DDEC0DF0040E9D
:102520000301A56F0001DDEC0DF04BC1A5F3DDEC5F
:102530000DF04AC1A5F3DDEC0DF049C1A5F3DDECCA
:102540000DF048C1A5F3DDEC0DF00301370EA56FCA
:102550000001DDEC0DF0040E0301A56F0001DDECC0
:102560000DF0010E0301A56F0001DDEC0DF0030E6F
:102570000301A56F0001DDEC0DF0060E0301A56F50
:102580000001DDEC0DF00C0E0301A56F0001DDEC88
:102590000DF003019C51030802E19D5318E09C2DAE
:1025A00030D001014C53D8B402D0030110D04D53A8
:1025B000D8B402D003010BD04E53D8B402D00301DB
:1025C00006D04F53D8A402D003011BD00301320E12
:1025D000A56F0001DDEC0DF0040E0301A56F0001F5
:1025E000DDEC0DF0010E0301A46F4C0EA36FA4C32C
:1025F000A6F3A56FA86B040EA76F000108EC0EF000
:102600000301A5690001DDEC0DF0F85101080AE3B2
:1026100003E1F7512B0806E30301A56B0001DDEC94
:102620000DF0F3D725C0A2F324C0A1F323C0A0F37B
:1026300022C09FF303019D5304E1256A246A236AA3
:10264000226A00010CD6A2C325F0A1C324F0A0C3C6
:1026500023F09FC322F01200F28A0000F29AD6CF34
:1026600018F1D7CF19F1010E0401116F1A0EE96E9E
:1026700011C4EAFF14C1EFFF15C1ECFF16C1ECFF56
:1026800017C1ECFFF2A402D00001E6D7F28A0001E4
:102690001200E2DF010E0401116F180E11C403F0E5
:1026A000E96E11C4EAFFEFCF00F0ECCF01F0ECCF00
:1026B00002F0ECCF03F000011200140E01012025FE
:1026C0000301F26F000E010121210301F36FEE51AE
:1026D000F225F06FEF51F321F16FF151100809E28B
:1026E000FF0A03E1F051D50804E2D60EF05F110EA7
:1026F000F15B0401356BF0C336F40001D2EC02F05B
:10270000010E0401356FF1C336F40001D2EC02F082
:102710001200010125510301EA25EC6F000EEB21A7
:10272000ED6FEF6FECC3EEF30001C7DF1200080E90
:102730000301A925AB6F000EAA21AC6FEB6FABC3F1
:10274000EAF30001E6DFAAC334F1A9C333F11200B2
:102750009CC355F003019C510101365D04E0000E5D
:10276000016E026E16D035A107D035910301AA6B18
:10277000A96B0001DCDF010133510001F95D006E3E
:10278000010134510001FA59036E00C001F0026EDC
:10279000010100011200FA510101345D06E308E174
:1027A0000001F9510101335D03E25550365D03E04C
:1027B000000E016E15D0ACC303F0ABC3ADF3ACC3D8
:1027C000AEF3000123EC06F0AEC3EAFFADC3E9FFB0
:1027D00001C0EFFF0101332BD8B4342B010E016E81
:1027E00000011200FA510101345D06E308E1000125
:1027F000F9510101335D03E25550365D04E0000EEE
:10280000016E026E33D033510001F95D0301AF6FE9
:10281000010134510001FA590301B06FB051AE5DAE
:1028200008E303E1AD51AF5D04E2B0C3AEF3AFC363
:10283000ADF3ACC333F4ABC332F4AEC335F4ADC3C4
:1028400034F40001E8EC05F002C0AEF301C0ADF3D2
:102850000301AD51010133270301AE5101013423BE
:102860000301ADC301F0AEC302F00101000112008B
:1028700001010BA501D02FD00B85010E1E5D0301B8
:10288000C66F000E01011F590301C76FC751100821
:1028900009E2FF0A03E1C651D50804E2110EC76F31
:1028A000D50EC66F1E0E04012A6F400E2B6F00015D
:1028B000F9EC02F00C0E0401356FC6C336F40001CA
:1028C000D2EC02F00D0E0401356FC7C336F40001DF
:1028D000D2EC02F0010100011200010135B307D072
:1028E0000001C6DFFA6BF96B01013669358300011F
:1028F000120003019F6B030EAC6F9C0EAB6F0001C7
:102900004ADF03019C510208D8A4BFD1AA6B040E70
:10291000A96F00010CDF030E0301AC6FA50EAB6FB6
:10292000AE6B040EAD6F00015DDF01013951030193
:10293000A55D0FE101013A510301A65D0AE1010124
:102940003B510301A75D05E101013C510301A85D75
:1029500001E0C6D1AA6B1C0EA96F0001E8DE0301DD
:102960009D6B9D51050814E3030EAC6F9C0EAB6F7D
:10297000000111DF036A03019D514F0FE96E000E44
:102980000320EA6EEF509C5D01E0AAD19D2BE9D7B0
:1029900001013FB515D00301AA6B100EA96F00010C
:1029A000C6DE010E0301AA6F4C0EA96FAAC3ACF3D9
:1029B000AB6FAE6B040EAD6F000114DF01015881E7
:1029C0000301AA6BF00EA96F0001B1DE0301A09113
:1029D000030EAC6F9C0EAB6F0001DDDE015204E113
:1029E0000301A08152D1000103019C51350A00016D
:1029F0000EE0340A2DE0020A5DE0350AD8B49AD020
:102A0000C90AD8B4C3D0CC0AD8B4C4D026D1030ED6
:102A10000301AC6F9C0EAB6F0001BDDE03019C2D6A
:102A200014D0030EAC6F9F0EAB6F0001B4DE01013A
:102A30003FA509D003019F510208D8B402D001017B
:102A400002D04ED1010103D003014AD101011AD1B4
:102A5000030E0301AC6F9C0EAB6F00019CDE030103
:102A60009C51040824E101013FA510D003019D6B96
:102A70009D51030809E3030EAC6F9C0EAB6F000180
:102A80008ADE03019D2BF4D711D00101010E030151
:102A9000AA6F540EA96FAAC3ACF3AB6FAE6B040E52
:102AA000AD6F00019FDE01015885030101D018D1EF
:102AB0000101E8D0030E0301AC6F9E0EAB6F000165
:102AC0006ADE03019E51030824E201013FA510D0F4
:102AD00003019D6B9D51030809E3030EAC6F9C0E2F
:102AE000AB6F000158DE03019D2BF4D711D001011B
:102AF000010E0301AA6F500EA96FAAC3ACF3AB6F0E
:102B0000AE6B040EAD6F00016DDE01015883030151
:102B100001D0E6D0040E9E5F9E519E07000A08E099
:102B2000030EAC6F9C0EAB6F000135DE0301F4D7D2
:102B30000101A8D0030E0301AC6F9C0EAB6F000126
:102B40002ADE03019C5104081DE1030EAC6FA40EA4
:102B5000AB6F000120DE030E0301AC6FA30EAB6F61
:102B6000000119DE030E0301AC6FA20EAB6F000172
:102B700012DE030E0301AC6FA10EAB6F00010BDE82
:102B800003D00301ADD0000101017CD00301A0817D
:102B9000010178D0030E0301AC6F9C0EAB6F0001F6
:102BA000FADD03019C51040854E101013FA510D056
:102BB00003019D6B9D51030809E3030EAC6F9C0E4E
:102BC000AB6F0001E8DD03019D2BF4D741D001017B
:102BD000010E0301AC6F470EAB6F0001DCDD010E8F
:102BE0000301AC6F460EAB6F0001D5DD010E030192
:102BF000AC6F450EAB6F0001CEDD010E0301AC6F73
:102C0000440EAB6F0001C7DD01014731036E463151
:102C1000026E4531016E4431006E033202320132E0
:102C20000032033202320132003203320232013208
:102C300000320332023201320032070E0316005016
:102C4000445F0150455B0250465B0350475B030104
:102C500001D046D0010116D00001030E0301AC6F74
:102C60009E0EAB6F000197DD03019E519E07000A87
:102C700008E0030EAC6F9C0EAB6F00018CDDF4D747
:102C8000030101010301A0A1A3D69F5102080CE199
:102C9000A4C34BF1A3C34AF1A2C349F1A1C348F1B4
:102CA00001013F8517D00301A1510101485D0FE1EA
:102CB0000301A2510101495D0AE10301A351010190
:102CC0004A5D05E10301A45101014B5D03E00301ED
:102CD0009F6B0101000101DE03019FC301F005D0DC
:102CE0000001FBDD000E016E030100011200030173
:102CF0009B6B9B53D8A470D201013E51F30FD8B007
:102D000068D20D0F0001EFEF18F0010162D203014C
:102D10009F6B9E6B9D6B9C6BA06BA26B440EA16F17
:102D2000A46B430EA36F00014BEC0CF001C03DF10E
:102D300001013D3D01D04DD2020E3E6F0001010167
:102D4000476B466B456B3C0E446F586B3F913F950C
:102D500000013DEC0CF0015203E101013AD2000107
:102D60003DC19CF32DEC0DF002C09DF301C09CF31E
:102D700003010250010807E303E19C512B0803E320
:102D8000010127D20301006A01013FB9002A010EA7
:102D9000001A3F9900B03F893D51170DF3500301D0
:102DA0009D6B9C6F560E9C25016E000E9D21036E3F
:102DB00001C09EF39F6FEA6E01C0E9FF0068026ADE
:102DC0000A0E016E0001F9EC04F0010E03019C6F84
:102DD0009D6B0001B2EC11F05CDC03C043F102C05A
:102DE00042F101C041F100C040F1030E01013E6F0C
:102DF000F0D13DC19CF3ACDC02C09DF301C09CF35B
:102E000003019D532FE19C51F9082CE3000141DCA3
:102E100003C09FF302C09EF301C09DF300C09CF36A
:102E20000101405103019C5F0101415103019D5B80
:102E30000101425103019E5B0101435103019F5B6C
:102E40000AE19E5308E19D51970809E2FF0A03E158
:102E50009C51980804E2020E01013E6F030101013A
:102E6000B8D1030101013F87000143DD0150020891
:102E700003E00101AED10001040E01013E6F00012B
:102E80003DC19CF32DEC0DF002C09DF301C09CF3FD
:102E900003010250010807E303E19C51010803E329
:102EA000010197D1030101013D51170DF3500301B9
:102EB0009D6B9C6F560E9C25016E000E9D21036E2E
:102EC00001C09EF39F6FEA6E01C0E9FF0068026ACD
:102ED0000A0E016E0001F9EC04F0030E03019C6F71
:102EE0009D6B0001B2EC11F049EC13F003C043F10B
:102EF00002C042F101C041F100C040F1050E0101E4
:102F00003E6F67D13DC19CF323DC02C09DF301C03D
:102F10009CF303019D5330E19C51F9082DE300011E
:102F200049EC13F003C09FF302C09EF301C09DF370
:102F300000C09CF30101405103019C5F010141511C
:102F400003019D5B0101425103019E5B010143515D
:102F500003019F5B0AE19E5308E19D51970809E236
:102F6000FF0A03E19C51980804E2020E01013E6F42
:102F7000030101012ED103010001BBDC0150050A50
:102F800003E0030A37E03AD03DC19DF3A6EC04F01C
:102F900001013D69000149EC13F003C043F102C097
:102FA00042F101C041F100C040F1060E01013E6F47
:102FB0003F833F8158A108D04FC125F04EC124F076
:102FC0004DC123F04CC122F058A508D057C129F0BB
:102FD00056C128F055C127F054C126F058A308D097
:102FE00053C12DF052C12CF051C12BF050C12AF029
:102FF000000104D0020E01013E6F00010101E9D081
:1030000049EC13F003C09FF302C09EF301C09DF38F
:1030100000C09CF30101405103019C5F010141513B
:1030200003019D5B0101425103019E5B010143517C
:1030300003019F5B0CE19E530AE19D511E0807E3CB
:1030400003E19C51840803E30101C3D003010101A2
:10305000475307E1465305E1455303E14451010855
:1030600010E2850E40271E0E4123000E422343230B
:10307000FF0E4427D8A04527D8A04627D8A0472729
:10308000A8D003019F6B9E6B9D6B9C6BA06BA26B8A
:10309000440EA16FA46B430EA36F00014BEC0CF028
:1030A00001C03DF101013D3D01D093D0070E3E6FBF
:1030B00000013DC19CF32DEC0DF002C09DF301C059
:1030C0009CF303010250010807E303E19C5101084E
:1030D00003E301017ED00301030E9C6F010E9D6F7F
:1030E0000001B2EC11F001013F95000149EC13F031
:1030F00003C043F102C042F101C041F100C040F100
:1031000001013E2B66D03DC19CF3A8EC13F002C038
:103110009DF301C09CF303019D5334E19C51F908D8
:1031200031E3000149EC13F003C09FF302C09EF3AA
:1031300001C09DF300C09CF30101405103019C5F5D
:103140000101415103019D5B0101425103019E5B5D
:103150000101435103019F5B0AE19E5308E19D5128
:1031600097080DE2FF0A03E19C51980808E201016B
:103170003E2B3E510C0802E2020E3E6F030101019C
:1031800028D00301000179EC14F00150050A03E096
:10319000030A18E01BD03DC19DF3A6EC04F0010129
:1031A0003D69000149EC13F003C043F102C042F154
:1031B00001C041F100C040F1060E01013E6F3F83A6
:1031C000000104D0020E01013E6F0001010101D097
:1031D000010103019B2B8DD50001C2EF36F0F2CF28
:1031E0000DF0F29EE824F76AF736030FF66E320E02
:1031F000F7220A00F550FA6E0800F5500DBEF28E67
:10320000F96E0A2D0E2D3E2DF22D802E042F00304A
:10321000B2300631B2300631B2300631000E010153
:103220003FB1010E016E0001C7EF36F02CEC13F038
:1032300019C1E6F31AC1E7F31BC1E8F31CC1E9F3B6
:10324000E6C300F0E7C301F0E8C302F0E9C303F00E
:1032500012000301D051D203F3CF01F0F4CF00F0FC
:10326000D303F3500026D151D203F3500020026E55
:1032700000011200010E0401156F190E146F0001F8
:103280000EEC03F0190E0401306F0001BDEC02F0EA
:1032900001C010F40401156B0E0E146F00010EEC4A
:1032A00003F00E0E0401306F0001BDEC02F001C00E
:1032B00012F40F0E0401306F0001BDEC02F001C0EA
:1032C00013F4010E0401156F190E146F00010EECBA
:1032D00003F0190E0401306F0001BDEC02F001C0D3
:1032E00014F404011051015CD8B402D00001CAD713
:1032F000156B0C0E146F00010EEC03F00C0E0401A4
:10330000306F0001BDEC02F001C010F40D0E04019D
:10331000306F0001BDEC02F001C011F40401115145
:10332000135D16E303E11251105D12E21051125DBC
:10333000006E11511359036E0050FF0AD60F006E34
:10334000110E035600C001F003C002F01CD01BD0C8
:103350001051125D09E11151135D06E1D50E016EA8
:10336000110E026E10D00FD01251105D146F135158
:103370001159156F010E145D006E000E1559036E84
:1033800000C001F0026E000180EF1EF0040E040187
:103390001D6F180E016E1DC4EAFFE96EEFCF20F419
:1033A000040E226F180E216F030E2125E96E000E08
:1033B0002221EA6EEF5020191DC4EAFF01C0E9FF87
:1033C000EF6E040E1D6F180E1C6F030E1C25016E90
:1033D000000E1D21036EEA6E01C0E9FFEFCF20F45D
:1033E000040E226F180EE96E22C4EAFFEF50201976
:1033F00003C0EAFF01C0E9FFEF6E040E1D6F180E57
:10340000016E1DC4EAFFE96EEFCF20F4040E226FB7
:10341000180E216F030E2125E96E000E2221EA6E9F
:10342000EF5020191DC4EAFF01C0E9FFEF6E040E42
:103430001D6F180E1C6F010E1C25016E000E1D2144
:10344000036EEA6E01C0E9FFEFCF20F4040E226F95
:10345000180E216F020E2125E96E000E2221EA6E60
:10346000EF50201903C0EAFF01C0E9FFEF6E040E20
:103470001D6F180E1C6F020E1C25016E000E1D2103
:10348000036EEA6E01C0E9FFEFCF20F4040E226F55
:10349000180E216F010E2125E96E000E2221EA6E21
:1034A000EF50201903C0EAFF01C0E9FFEF6E040EE0
:1034B0001D6F180E1C6F010E1C25016E000E1D21C4
:1034C000036EEA6E01C0E9FFEFCF20F4040E226F15
:1034D000180E216F020E2125E96E000E2221EA6EE0
:1034E000EF50201903C0EAFF01C0E9FFEF6E18C4D6
:1034F00000F019C401F01AC402F01BC403F000016B
:103500001200040110C401F011C403F010C412F43D
:1035100011C413F410C4E9FF11C4EAFFECCF15F491
:10352000ED52EFCF14F415C430F414C42FF400019D
:1035300049EC0EF013C4EAFF12C4E9FF02C0ECFF2D
:10354000ED5201C0EFFF020E04011025016E000EC6
:103550001121036E01C012F4136F020E1025E96EE3
:10356000000E1121EA6EECCF15F4ED52EFCF14F4FA
:1035700015C430F414C42FF4000149EC0EF013C448
:10358000EAFF12C4E9FF02C0ECFFED5201C0EFFFF9
:10359000040E04011025016E000E1121036E01C0FE
:1035A00012F4136F040E1025E96E000E1121EA6E5D
:1035B000EFCF14F4ECCF15F4ECCF16F4ECCF17F4F6
:1035C00017C41BF416C41AF415C419F414C418F45F
:1035D0000001DCDE13C4EAFF12C4E9FF00C0EFFF04
:1035E00001C0ECFF02C0ECFF03C0ECFF080E0401B9
:1035F0001025016E000E1121036E01C012F4136F2D
:10360000080E1025E96E000E1121EA6EEFCF14F4BA
:10361000ECCF15F4ECCF16F4ECCF17F417C41BF471
:1036200016C41AF415C419F414C418F40001AEDE5B
:1036300013C4EAFF12C4E9FF00C0EFFF01C0ECFFB2
:1036400002C0ECFF03C0ECFF0E0E04011025016E5A
:10365000000E1121036E01C012F4136F0E0E10251F
:10366000E96E000E1121EA6EECCF15F4ED52EFCFAA
:1036700014F415C430F414C42FF4000149EC0EF016
:1036800013C4EAFF12C4E9FF02C0ECFFED5201C00F
:10369000EFFF100E04011025016E000E1121036EC4
:1036A00001C012F4136F100E1025E96E000E1121E7
:1036B000EA6EECCF15F4ED52EFCF14F415C430F4EC
:1036C00014C42FF4000149EC0EF013C4EAFF12C435
:1036D000E9FF02C0ECFFED5201C0EFFF120E040142
:1036E0001025016E000E1121036E01C012F4136F3C
:1036F000120E1025E96E000E1121EA6EECCF15F4C2
:10370000ED52EFCF14F415C430F414C42FF40001BB
:1037100049EC0EF013C4EAFF12C4E9FF02C0ECFF4B
:10372000ED5201C0EFFF12000401146B156B166B14
:10373000176B306B0001BDEC02F001C012F4010EFA
:103740000401306F0001BDEC02F001C013F404016C
:103750001051111158E0115303E11051140803E204
:10376000036A140E03D011C403F01051186F03C084
:1037700019F4040E316F1A0E306F31C433F4326F06
:1037800019C435F418C434F40001E8EC05F0040160
:103790001851105F1951115B040E316F180EE96E4C
:1037A00031C4EAFFEFA00CD0040E316F1A0E1825B9
:1037B000E96E31511921EA6EEF6A182BD8B4192B32
:1037C000040E2F6F1A0E2E6F185119111BE02FC403
:1037D00003F02EC400F0020E2E27D8B02F2B00C00D
:1037E000E9FF03C0EAFFECCF03F0ED52EF501427DE
:1037F00003501523000E16231723020E185F000E28
:10380000195BE2D7A5D7356B12C436F40001D2ECB0
:1038100002F0010E0401356F13C436F40001D2EC3E
:1038200002F00401336B326B15C431F414C430F46C
:1038300016C400F017C401F0026A036A1651142579
:10384000146F17511521156F02503221166F035056
:103850003321176F165114271751152315C403F080
:10386000031E1451FF0A016E03C002F00001120092
:1038700006EC08F00301E6A104D00101F187030181
:10388000E6910101F09BF09DF09FF193F195F1918C
:103890000001F9EC0CF00152FCE00301E651060BCB
:1038A00005E004010F6B0E6B1CD103010101815176
:1038B000DF5D08E18251E05D05E104010F6B0E6BF5
:1038C000F7D001018251E05D4FE303E1DF51815DFB
:1038D0004BE28151DF5D04010E6F01018251E0591D
:1038E00004010F6F0101885104010F5D0DE308E130
:1038F0000E510101875DD8A002D0040105D004015A
:1039000088C10FF487C10EF40101995104010F5DC4
:1039100010E308E10E510101985DD8A002D0040126
:1039200008D0040199C10FF498C10EF40101F1858A
:103930000401120E186F0D0E176F196B82C11BF464
:1039400081C11AF4F4C11CF40FC41EF40EC41DF49A
:10395000000193EC07F004010E51010181270401DD
:103960000F5101018223A3D08151DB5D04010C6F53
:1039700001018251DC5904010D6F0101DF51040185
:103980000C25106F0101E05104010D21116F01019F
:10399000D9510401105D0E6F0101DA510401115972
:1039A0000F6F0101885104010F5D0DE308E10E5115
:1039B0000101875DD8A002D0040105D0040188C1AF
:1039C0000FF487C10EF40101995104010F5D10E35A
:1039D00008E10E510101985DD8A002D0040108D081
:1039E000040199C10FF498C10EF40101F18504019D
:1039F0000F510D5D08E303E10C510E5D04E20FC4AD
:103A00000DF40EC40CF4120E186F0D0E176F196B17
:103A100082C11BF481C11AF4F4C11CF40DC41EF45C
:103A20000CC41DF4000193EC07F004010C510E5D71
:103A30000C6F0D510F590D6F0C510D1120E001014C
:103A40008151DB5D006E8251DC59036E00500D0F19
:103A50000401106F120E0320116F186F10C417F4B9
:103A6000196BDAC11BF4D9C11AF4F4C11CF40DC4EA
:103A70001EF40CC41DF4000193EC07F004010E5178
:103A80000101812704010F5101018223DC51825D74
:103A90000EE303E1DB51815D0AE3D951DB5D006E8A
:103AA000DA51DC59036E0050815F0350825B0401E0
:103AB0000101F1A717D0875104010E5D05E1010155
:103AC000885104010F5D0DE00101985104010E5D64
:103AD00005E10101995104010F5D03E00301E68155
:103AE0000401010104010E510F1105E10301E6512A
:103AF000030B36E004010E510101875F04010F51F1
:103B00000101885B04010E510F1103E00301E687F8
:103B100004010301E7A109D001019A6B786B776B6F
:103B20001E0E766F850E756F0301000149EC13F0D0
:103B300001017551040100240101E76F7651040170
:103B400001200101E86F7751040102200101E96FB2
:103B50007851040103200101EA6FF0893FD003018D
:103B6000E7A314D00101F051010F070B006EF80E0E
:103B7000F0150010F06F010E795F000E7A5B7B5B31
:103B80007C5B04010F6B010E0E6F29D00101F0A9BF
:103B900025D00301E7B10AD001019A5306E09A0744
:103BA000D89078337733763375330301000149ECCD
:103BB00013F001017551040100240101E76F7651F2
:103BC000040101200101E86F775104010220010185
:103BD000E96F7851040103200101EA6F040186C1F5
:103BE000EBF385C1EAF384C1EDF383C1ECF37CC14F
:103BF000F1F37BC1F0F37AC1EFF379C1EEF380C149
:103C0000F5F37FC1F4F37EC1F3F37DC1F2F33F0E10
:103C10000301F715F76FF00EF615F66FE6C3F7F32D
:103C2000FD6BFC6B0EC400F00FC401F0026A036A66
:103C300000500101792701507A2302507B23035061
:103C40007C230301E6A31ED0E6B904D0F56BF46B28
:103C5000F36BF26B010197A30BD0FF0E0301EE276C
:103C6000D8A0EF27D8A0F027D8A0F1270BD00101CA
:103C7000010E7927D8B07A2BD8B47B2BD8B47C2B03
:103C800097830301E6A103D001019781030101019C
:103C9000E651E45D20E303E1E551E35D1CE3DB5124
:103CA000DD5D0401106F0101DC51DE590401116F6B
:103CB0000101E551E35D006EE651E459036E0050E9
:103CC0000401105D0301F86F035004011159030151
:103CD000F96F13D00101E351E55D0401106F01019B
:103CE000E451E6590401116F010E105D0301F86FF4
:103CF000000E040111590301F96F00013AEF19F0A8
:103D000002C0E9F301C0E8F30301E95306E1E85119
:103D10003F0803E3E96BE86B04D0400EE85F000E58
:103D2000E95BE951F95D08E303E1F851E85D04E27C
:103D3000E9C3F9F3E8C3F8F3030E0401116FEA0EC7
:103D4000106F000181EC1AF0140E04010E27000E12
:103D50000F230F0E0301F6155009F66FE6A31BD0D3
:103D6000040E04010E27000E0F23020E0301FE6F46
:103D7000040EFF6F180E0401016F020E006F0301A5
:103D8000F6390F0B010F006E0038F00B006E0F0EAE
:103D9000F6150010F66F25C005F424C004F423C006
:103DA00003F422C002F48EC109F48DC108F48CC161
:103DB00007F48BC106F404010A6B060E0B6F0FC4E7
:103DC0000DF40EC40CF40DC430F40CC42FF4000137
:103DD00049EC0EF002C00DF401C00CF4040E040115
:103DE000116F020E106F11C42CF42B6F2E6B0C0E82
:103DF0002D6F0001C7EC0EF001C0FAF30301FA1FAA
:103E000002C0FBF3FB1F110E0401206FE50E1F6FB4
:103E1000000157EC05F0010E0401116F8B0E106FBD
:103E2000060E126F0FC414F40EC413F400019EECBE
:103E30000FF0030E0401116FEA0E106F11C435F478
:103E4000346F376B140E366F00018FEC05F00301F1
:103E5000E6A30FD0030E0401116FFE0E106F11C404
:103E600035F4346F376B040E366F00018FEC05F0BC
:103E70000301110E0401206FF90E1F6F0001B2EC57
:103E800005F00FC411F40EC410F44EDC02C0E9F3C7
:103E900001C0E8F3120E0401206F090E1F6F00012C
:103EA00057EC05F0030E0401116FE80E106F11C4FA
:103EB00035F4346F376B020E366F00018FEC05F06E
:103EC00013EC10F012000301A051000801E26ED0C3
:103ED000A0C3D0F3000106EC05F0E4C1E6F1E3C1B4
:103EE000E5F10101EF51000A000115E0020A13E0BB
:103EF000010A11E0060A0FE0030A10E0010A0EE0D1
:103F00000C0A29E0050A44E0060A47E0010A45E0F8
:103F1000050A43E042D072EC08F047D0110E0301CD
:103F2000E66F010EE76F0001A3DC0101875303E197
:103F3000885301E10CD08151DF5DD8B402D000017B
:103F4000EDD78251E05DD8B402D00001E7D7080E6A
:103F5000EF6F00012AD0110E0301E66F010EE76F2B
:103F6000000186DC0101875303E1885301E10CD095
:103F70008151DF5DD8B402D00001EDD78251E05D00
:103F8000D8B402D00001E7D70C0EEF6F00010DD0BE
:103F90000D0E0101EF6F000108D0140E0301E66F52
:103FA000E76B000165DC72EC08F003010001120010
:103FB00003019B6B9B53D8A45AD39BC3D0F300013E
:103FC00006EC05F003019D6B9C919C930101F1B3FC
:103FD00002D0F1A50FD00001F9EC0CF001520BE07A
:103FE000100E03019D6F9C910101F1A503D0030107
:103FF0009C81010100010101F0AB18D0000116EC19
:1040000019F000500101EB5D006E0150EC59036E98
:1040100000C0A0F30301A16FE8BE05D0A15305E1E4
:10402000A051000802E3100E9D6F0101F0AD18D001
:10403000000116EC19F000500101ED5D006E015019
:10404000EE59036E00C0A0F30301A16FE8BE05D0D6
:10405000A15305E1A051000802E3100E9D6F01017C
:10406000EF510B081AE1000116EC19F000500101A4
:10407000ED5D006E0150EE59036E00C0A0F3030128
:10408000A16FE8BE05D0A15309E1A051000806E3E5
:10409000110E9D6F0C0E0101EF6F03010101EF5135
:1040A0000408D8A459D103019F6B9E6B9F53D8A4D9
:1040B00052D19E510208D8A04ED19FC3D1F39EC3C6
:1040C000D0F3D36B140ED26F000129EC19F001C0AC
:1040D000A0F3100E03010124016E000E0220036EF6
:1040E00001509D0FE96E010E0320EA6EECCFA1F3A3
:1040F000ED52EFCFA0F3A05303E1A15301E12BD187
:104100009FC3D1F39EC3D0F3D36B140ED26F0001C3
:1041100029EC19F001C0A0F3100E03010124016E77
:10412000000E0220036E01509D0FE96E010E032068
:10413000EA6EECCFA1F3ED52EFCFA0F30101F25103
:104140000301A05DD8A403D10101F3510301A15DD6
:10415000D8A4FDD0000106EC08F0010E0301A16F08
:104160008B0EA06F9FC3D1F39EC3D0F3D36B140EFD
:10417000D26F000129EC19F002C0A3F301C0A2F331
:104180009D0E03010124016E010E0220036E01C089
:10419000A4F3A56FA1C3EAFFA0C3E9FFE26E01C0CB
:1041A000E1FF0A0E016EE6CFEEFF012EFCD79FC3A2
:1041B000D1F39EC3D0F3D36B140ED26F000129EC60
:1041C00019F001C0A0F30A0E03010124016E000ED4
:1041D0000220036E01509D0FE96E010E0320EA6E6E
:1041E000ECCF84F1ED52EFCF83F19FC3D1F39EC3A7
:1041F000D0F3D36B140ED26F000129EC19F001C07B
:10420000A0F30C0E03010124016E000E0220036EC8
:1042100001509D0FE96E010E0320EA6EEFCFA0F36F
:10422000ECCFA1F3ECCFA2F3ECCFA3F3010EA025CA
:1042300001017D6F000E0301A12101017E6F000EBF
:104240000301A22101017F6F000E0301A3210101DF
:10425000806F8B518D250301A06F01018C518E2140
:104260000301A16F010183510301A02701018451C2
:104270000301A123A05101018519F26F0301A1518E
:1042800001018619F36F120E03019D6F060E0101E5
:10429000EF6F9FC3D1F39EC3D0F30301D36B140E12
:1042A000D26F000129EC19F002C003F001509D0FFC
:1042B000016E010E032201C0A0F3030103C0A1F3AC
:1042C000010E9E25A26F000E9F21A36FD16FA2C386
:1042D000D0F3D36B140ED26F000129EC19F002C099
:1042E00003F001509D0F016E010E032201C0A2F3E5
:1042F000030103C0A3F3020ED8809E55A46F000EE5
:104300009F55A56FD16FA4C3D0F3D36B140ED26F9A
:10431000000129EC19F002C0A5F301C0A4F3A1C368
:1043200018F4A0C317F4010E0401196FA3C31BF402
:10433000A2C31AF41C6F02C01EF401C01DF40001D8
:1043400093EC07F00101D66BD56B030104D09E2BD3
:10435000D8B49F2BABD6010103019D530DE09CA166
:1043600002D0000E01D0010EA06F9DC3E6F3E76FEF
:10437000000138EC1CF003010101F0B96DD0EF51E0
:10438000070867E1000149EC13F003C0A3F302C082
:10439000A2F301C0A1F300C0A0F30101E7510301A2
:1043A000005C006E0101E85103010158016E01013A
:1043B000E95103010258026E0101EA510301035859
:1043C000036EA36F02C0A2F301C0A1F300C0A0F36B
:1043D000E8AE01D04AD10101F051070B060818E1FF
:1043E00003019D6B0101F0A703D003019D2B010187
:1043F0009BC3A0F3000167DD9BC3A0F364DD030151
:104400009D5304E10E0E0101EF6F03012ED1010156
:10441000000106EC08F0100E0301E66F020EE76FD4
:10442000000138EC1CF049EC13F0320E03010024BB
:104430000101E76F310E030101200101E86F010E58
:10444000030102200101E96F000E030103200101B5
:10445000EA6F03010AD10101000149EC13F003C026
:10446000A3F302C0A2F301C0A1F300C0A0F30101B5
:10447000E7510301005C006E0101E851030101589E
:10448000016E0101E95103010258026E0101EA5176
:1044900003010358036EA36F02C0A2F301C0A1F38E
:1044A00000C0A0F3E8AE01D0E0D0000106EC08F0B7
:1044B0000101EF51050A00010FE0030A1FE0010AA4
:1044C00034E00C0A32E0030A41E0010A4FE0030A3B
:1044D00053E0060A61E071D0020E03019D6F9C81DA
:1044E00001019A51030809E2040E9A6F786B010EDC
:1044F000776FE80E766F500E756F60D001019A519C
:10450000010806E3120E03019D6F9C810CD001018E
:10451000F0A706D0140E03019D6F9C8304D0010107
:10452000020E03019D6F010149D001019A51040857
:1045300006E3100E03019D6F9C8106D00101080E59
:10454000EF6F110E03019D6F010138D001019A51E7
:10455000040806E3110E03019D6F9C8105D0010143
:10456000140E03019D6F9C83010128D0140E0301DA
:104570009D6F9C83010122D001019A51040806E33A
:10458000100E03019D6F9C8105D00101140E0301E3
:104590009D6F9C83010112D001019A51040806E32A
:1045A000110E03019D6F9C8105D00101140E0301C2
:1045B0009D6F9C83010102D00001010103019D5305
:1045C0004EE09CA144D001019A2BD89075377637E4
:1045D00077377837E151815D03019E6F0101E25128
:1045E000825903019F6F01018251E25D10E303E1F3
:1045F000E151815D0CE2D951DB5D006EDA51DC598D
:10460000036E005003019E2703509F230101030105
:104610009E510101795F03019F5101017A5B000EF8
:104620007B5B7C5B03019E510101872703019F5146
:1046300001018823E2C182F1E1C181F19DC3E6F36A
:104640000301E76B000138EC1CF008D003019DC3A7
:10465000E6F3010EE76F000138EC1CF003019CA3A8
:1046600004D0000172EC08F003019B2BA3D49F6BD4
:104670009E6B9F53D8A4B9D09E510208D8A0B5D044
:104680009FC3D1F39EC3D0F3D36B140ED26F00013E
:1046900029EC19F001C0A0F3100E03010124016EF2
:1046A000000E0220036E01509D0FE96E010E0320E3
:1046B000EA6EECCFA1F3ED52EFCFA0F3A05303E1EC
:1046C000A15301E192D0000116EC19F001C0A1F351
:1046D00000C0A0F39FC3D1F39EC3D0F30301D36BFB
:1046E000140ED26F000129EC19F002C0A3F301C02F
:1046F000A2F3120E03010124016E000E0220036ECC
:1047000001509D0FE96E010E0320EA6EECCF03F01D
:10471000ED52EF50A05F0350A15B03E1A0515B0895
:1047200060E29FC3D1F39EC3D0F3D36B140ED26F5C
:10473000000129EC19F002C003F001509D0F016E39
:10474000010E032201C0A0F3030103C0A1F3010E77
:104750009E25A26F000E9F21A36FD16FA2C3D0F33D
:10476000D36B140ED26F000129EC19F002C003F0D4
:1047700001509D0F016E010E032201C0A2F303013F
:1047800003C0A3F3020ED8809E55A46F000E9F5560
:10479000A56FD16FA4C3D0F3D36B140ED26F0001F9
:1047A00029EC19F002C0A5F301C0A4F3A1C318F4C9
:1047B000A0C317F4010E0401196FA3C31BF4A2C315
:1047C0001AF41C6F02C01EF401C01DF4000193EC2A
:1047D00007F00101D66BD56B03019E51D8B49F073A
:1047E0009E079E2BD8B49F2B44D70001CCEF36F008
:1047F00003019B6B9B5106083DE39B51170DF35042
:104800009D6B9C6F0E0E9C25016E000E9D21036E0C
:104810000150560FE96E000E0320EA6EEF500508B6
:1048200014E09B51170DF3509D6B9C6F0E0E9C2551
:10483000016E000E9D21036E0150560FE96E000EB1
:104840000320EA6EEF50040801E112D09B51170DCE
:10485000F3509D6B9C6F0E0E9C25016E000E9D21EA
:10486000036E0150560FE96E000E0320EA6EEF5002
:104870009B2BC0D70001CEEF36F0010E0401156F5F
:10488000190E146F00010EEC03F0190E0401306FC5
:104890000001BDEC02F001C0B3F30401156B146B11
:1048A00000010EEC03F00301B35303E1000E016EAF
:1048B0008CD001010BB508D0000138EC14F0000ECB
:1048C000016E030182D001011FC121F11EC120F13F
:1048D0000401356B20C136F40001D2EC02F0010E68
:1048E0000401356F21C136F40001D2EC02F0030E51
:1048F0000301B56F9F0EB46FB5C333F4E8CF32F444
:104900000401356B140E346F0001E8EC05F0B2C3FE
:1049100030F4B1C32FF449EC0EF002C0B2F301C081
:10492000B1F30301A051100805E2FF0A19E19F51FC
:10493000D50816E3030EB56F9F0EE96EB5C3EAFF07
:10494000EFB00ED0A4BF0CD0A3B90AD0A251040876
:1049500005E2FF0A05E1A151EE0802E3A3BF01D081
:10496000FF00A0C31FF19FC31EF19CC303F09BC3B4
:10497000B4F39CC3B5F3030EB76FAB0E9CC3EAFF51
:104980009BC3E9FFB7C3E2FFE16E060E016EE6CFFF
:10499000EEFF012EFCD79EC303F09DC3E9FF03C0C9
:1049A000EAFFEF68B25108080BE1B15303E0B151DF
:1049B000060806E19DC3E9FF9EC3EAFFB1C3EFFF0E
:1049C00001010B95010E016E03010001DCEF36F0D1
:1049D0000301B9C301F0BAC303F0B9C3BBF3BAC34F
:1049E000BCF3B9C3E9FFBAC3EAFFECCFBEF3ED52A3
:1049F000EFCFBDF3BEC330F4BDC32FF4000149ECCB
:104A00000EF0BCC3EAFFBBC3E9FF02C0ECFFED52EE
:104A100001C0EFFF020E0301B925016E000EBA219D
:104A2000036E01C0BBF3BC6F020EB925E96E000E28
:104A3000BA21EA6EECCFBEF3ED52EFCFBDF3BEC3A9
:104A400030F4BDC32FF4000149EC0EF0BCC3EAFF03
:104A5000BBC3E9FF02C0ECFFED5201C0EFFF060E41
:104A60000301B925016E000EBA21036E01C0BBF32C
:104A7000BC6F060EB925E96E000EBA21EA6EECCFC6
:104A8000BEF3ED52EFCFBDF3BEC330F4BDC32FF480
:104A9000000149EC0EF0BCC3EAFFBBC3E9FF02C052
:104AA000ECFFED5201C0EFFF1200F9EC0CF00152E7
:104AB000FCE0110E0401206FD70E1F6F000157ECB0
:104AC00005F00301B7C3E9FFB8C3EAFFEC6AED5292
:104AD000010EEF6E020EB725E96E000EB821EA6EE8
:104AE000080EEC6EED52EF6A040EB725E96E000E6B
:104AF000B821EA6E060EEF6E050EB725E96E000EC0
:104B0000B821EA6E040EEF6E080EB725016E000E96
:104B1000B821036E01C0B9F3BA6FBC6B4F0E03C06E
:104B2000EAFF01C0E9FFBCC3E2FFE16E060E016EC1
:104B3000E6CFEEFF012EFCD70E0EB725E96E000E74
:104B4000B821EA6E22C0EFFF23C0ECFF24C0ECFFC7
:104B500025C0ECFFB8C3BAF3B7C3B9F3000138DF1F
:104B6000120E0301B725016E000EB821036E01C0BD
:104B7000B9F3BA6FE8CF2EF401C02DF4060E04018C
:104B80002F6F316B1C0E306F00013BEC0FF0B8C380
:104B900035F4B7C334F40401376B1C0E366F0001D3
:104BA0008FEC05F013EC10F0010E016E56EF26F0BD
:104BB000000E01010BB7010E000A000103E0010A1B
:104BC00055E07ED0030E0301B86F9B0EB76FB8C3DC
:104BD00033F4E8CF32F40401356B1C0E346F00015E
:104BE000E8EC05F038EC14F0030E0301BA6F9B0EED
:104BF000B96F0001EDDE03019B2D08D09C5306E147
:104C00009F51060803E1A051040803E0010E016E64
:104C10005AD0A12D2AD0A25328E12250B35D09E138
:104C20002350B45D06E12450B55D03E12550B65D27
:104C300003E0010E016E47D0ACC329F1ABC328F1EC
:104C4000AAC327F1A9C326F1010EEA6E2A0EE96E66
:104C5000030EE26EA30EE16E060E016EE6CFEEFFCE
:104C6000012EFCD701010B87030100010301A26B98
:104C7000020EA16F030EEA6EAD0EE96E010EE26E3A
:104C80002A0EE16E060E016EE6CFEEFF012EFCD776
:104C900029C1B6F328C1B5F327C1B4F326C1B3F3D4
:104CA000030EB86F9B0EB76F0001FFD6015205E1EE
:104CB000000E016E030107D0000101010B970001F6
:104CC000010E016E030100017DEF37F0140E0101AA
:104CD00020250301C16F000E010121210301C26FD4
:104CE000B951C125BD6FBA51C221BE6FBE51100866
:104CF00009E2FF0A03E1BD51D50804E2D60EBD5F0B
:104D0000110EBE5B0401306B0001BDEC02F001C06E
:104D1000BFF3010E0401306F0001BDEC02F001C0D1
:104D2000C0F30401356BBDC336F40001D2EC02F0D0
:104D3000010E0401356FBEC336F40001D2EC02F05F
:104D4000BCC311F4BBC310F494EC1BF002C0BEF35F
:104D500001C0BDF30401356BBFC336F40001D2ECD2
:104D600002F0010E0401356FC0C336F40001D2EC2D
:104D700002F00301BDC301F0BEC302F00001120046
:104D8000030E0301BA6FA50EB96FBAC333F4E8CFAF
:104D900032F40401356B140E346F0001E8EC05F0B9
:104DA0000301A551F00B400803E0000E016E68D02E
:104DB000AB511F0B006EACC303F00050AC1103E00D
:104DC000000E016E5DD0A5510F0B006E0034010185
:104DD000256F2537FC0E25170301BA6BB96BBC6B29
:104DE00025C1BBF3000172DF02C0A4F301C0A3F32D
:104DF0000301EF6B25C1EEF300015DEC13F003013D
:104E0000A351A41103E0000E016E3AD0030E040179
:104E10002A6FA50E296F00015AEC0EF003019B5179
:104E20009C110CE09BC3E9FF9CC3EAFFB5C3EFFFF5
:104E3000B6C3ECFFB7C3ECFFB8C3ECFF9DC3E9FFFB
:104E40009E51EA6EB1C3EFFFB2C3ECFFB3C3ECFFF8
:104E5000B4C3ECFF9FC3E9FFA0C3EAFFAEC3EFFFFB
:104E6000A1C3E9FFA2C3EAFF010125510301A75D28
:104E7000006E000EA85900C0EFFFEC6E010E016E2F
:104E80000001FDEF36F0030E0301A46F9F0EA36F28
:104E9000A4C333F4E8CF32F40401356B040E346F4D
:104EA0000001E8EC05F003019F5108085EE1A05302
:104EB0005CE1BA6B140EB96F9EC3BCF39DC3BBF328
:104EC000000104DF0150021001E04ED003019F6B8E
:104ED000080EA127A151070804E3A22BA25301E168
:104EE000A12B0001F9EC0CF00152FCE0110E0401C1
:104EF000206FE50E1F6F000157EC05F09CC311F405
:104F00009BC310F4010E0401126F9EC314F49DC3E1
:104F100013F400019EEC0FF0030E0301A46F9F0E2B
:104F2000A36FA4C335F4E8CF34F40401376B040E47
:104F3000366F00018FEC05F0040E03019D5DA36F39
:104F4000000E9E59A46F040120691F69226921691E
:104F5000246FA3C323F4000138EC06F07FEC07F0C4
:104F60000152FCE013EC10F00301000152EF37F0A6
:104F7000020E0301C625E96E000EC721EA6EECCFD2
:104F8000D1F3ED52EFCFD0F3D05305E1D15303E18C
:104F9000000E016EFDD2FE0ECB6F020EC825E96E2B
:104FA000000EC921EA6EECCFD1F3ED52EFCFD0F372
:104FB000C8C3E9FFC9C3EAFFECCF03F0ED52EF50DD
:104FC000D0270350D123C6C3E9FFC7C3EAFFECCF04
:104FD00003F0ED52EF50D0270350D123020EC62527
:104FE000E96E000EC721EA6EECCF03F0ED52EF50F0
:104FF000D019CC6F0350D119CD6FCA6BCA53D8A446
:1050000081D0CAC3D0F3000106EC05F00101EF51D5
:105010000D0802E174D023D0EF51040815E1020E0F
:105020000301C625E96E000EC721EA6EECCF03F03E
:10503000ED52EF500101F25D05E10350F35D02E135
:10504000CAC3CBF35CD00BD00301CC510101F25D9C
:1050500005E10301CD510101F35D01E050D00001F4
:1050600006EC08F0020E0301C625E96E000EC7210A
:10507000EA6EECCFD1F3ED52EFCFD0F301018551C1
:105080000301D05D3BE1010186510301D15D36E1B1
:10509000C6C3E9FFC7C3EAFFECCFD1F3ED52EFCFB0
:1050A000D0F3010183510301D05D28E10101845156
:1050B0000301D15D23E1C8C3E9FFC9C3EAFFEFCF14
:1050C000D0F3ECCFD1F3ECCFD2F3ECCFD3F301019B
:1050D0008B510301D05D12E101018C510301D15DBF
:1050E0000DE101018D510301D25D08E101018E51F5
:1050F0000301D35D03E1010E016E4AD201010301F8
:10510000CA2B7CD7CB51FE083AE0CBC3D0F30001C9
:1051100006EC05F006EC08F00301CB51FE082FE089
:10512000CDC3F3F1CCC3F2F1010ED16F8B0ED1C31D
:10513000EAFFE96EC9C3E2FFC8C3E1FF0A0E016ED0
:10514000E6CFEEFF012EFCD7C6C3E9FFC7C3EAFFD7
:10515000ECCF84F1ED52EFCF83F1020EC625E96E5C
:10516000000EC721EA6EECCF86F1ED52EFCF85F14C
:10517000DAC182F1D9C181F1010E016E09D20D0EA1
:10518000C625E96E000EC721EA6EEFB203D0000E0D
:10519000016EFED10101D551D61105E0000E016E60
:1051A0000301F6D101010301CF6BCE6BCF53D8A41D
:1051B000E6D0CE510208D8A0E2D0CFC3D1F3CEC3FF
:1051C000D0F3D36B140ED26F000129EC19F001C09B
:1051D000D0F3100E03010124016E000E0220036EB5
:1051E00001509D0FE96E010E0320EA6EECCFD1F362
:1051F000ED52EFCFD0F3D05303E1D15301E1BFD053
:10520000CFC3D1F3CEC3D0F3D36B140ED26F000152
:1052100029EC19F001C0D0F3100E03010124016E36
:10522000000E0220036E01509D0FE96E010E032057
:10523000EA6EECCFD1F3ED52EFCFD0F3020EC625DC
:10524000E96E000EC721EA6EECCF03F0ED52EF508D
:10525000D05D03E10350D15D01E08DD0CFC3D1F328
:10526000CEC3D0F3D36B140ED26F000129EC19F02A
:1052700001C0D0F30A0E03010124016E000E0220CA
:10528000036E01509D0FE96E010E0320EA6EECCF14
:10529000D1F3ED52EFCFD0F3C6C3E9FFC7C3EAFFA6
:1052A000ECCF03F0ED52EF50D05D03E10350D15D40
:1052B00001E061D0CFC3D1F3CEC3D0F3D36B140ED2
:1052C000D26F000129EC19F002C0D1F301C0D0F374
:1052D0009D0E03010124E96E010E0220EA6EEFCF5C
:1052E000D2F3ECCFD3F3ECCFD4F3ECCFD5F3C8C3E8
:1052F000E9FFC9C3EAFFEFCF00F0ECCF01F0ECCF3C
:1053000002F0ECCF03F00050D25D09E10150D35D13
:1053100006E10250D45D03E10350D55D01E02BD0DE
:10532000CFC3D1F3CEC3D0F3D36B140ED26F000131
:1053300029EC19F001C0D0F3120E03010124016E13
:10534000000E0220036E01509D0F016E010E03221C
:1053500001C0D0F303C0D1F3000116EC19F0D1C3A2
:10536000EAFFD0C3E9FF00C0EFFF01C0ECFF000E71
:10537000016E03010DD1CE2BD8B4CF2B17D7CA6B3A
:10538000CA53D8A403D1CAC3D0F3000106EC05F078
:105390000101F0B701D0F7D0000106EC08F0020ED1
:1053A0000301C625E96E000EC721EA6EECCF03F0BB
:1053B000ED52EF500101855D03E10350865D01E090
:1053C000E2D0CFC3D1F3CEC3D0F30301D36B140E1D
:1053D000D26F000129EC19F002C0D1F301C0D0F363
:1053E0009D0E03010124016E010E0220036E01C017
:1053F000D2F3D36FEA6E01C0E9FFC9C3E2FFC8C3AD
:10540000E1FF0A0E016EE6CFEEFF012EFCD7CFC3FF
:10541000D1F3CEC3D0F3D36B140ED26F000129ECBD
:1054200019F001C0D0F30A0E03010124016E000E31
:105430000220036E01509D0F016E010E032203C076
:10544000D1F3C6C3E9FFC7C3EAFFECCF03F0ED52C7
:10545000EFCFD2F3D1C3EAFF01C0E9FF03C0ECFFF5
:10546000ED52D2C3EFFFCFC3D1F3CEC3D0F3D36B92
:10547000140ED26F000129EC19F001C0D0F30C0E0C
:1054800003010124016E000E0220036E01509D0FE6
:10549000016E010E032201C0D0F303C0D1F3040E4C
:1054A000C625E96E000EC721EA6EEFCF00F0ECCF03
:1054B00001F0ECCF02F0ECCF03F0D1C3EAFFD0C390
:1054C000E9FF00C0EFFF01C0ECFF02C0ECFF03C02A
:1054D000ECFFCFC3D1F3CEC3D0F3D36B140ED26F96
:1054E000000129EC19F001C0D0F3100E03010124D2
:1054F000016E000E0220036E01509D0F016E010E21
:10550000032203C0D1F3020EC625E96E000EC721A7
:10551000EA6EECCF03F0ED52EFCFD2F3D1C3EAFF46
:1055200001C0E9FF03C0ECFFED52D2C3EFFFCFC3D0
:10553000D1F3CEC3D0F3D36B140ED26F000129EC9C
:1055400019F001C0D0F3120E03010124016E000E08
:105550000220036E01509D0F016E010E032201C057
:10556000D0F303C0D1F3000116EC19F0D1C3EAFF68
:10557000D0C3E9FF00C0EFFF01C0ECFF000E016ED9
:10558000030106D001010301CA2BFAD6000E016EF9
:105590000001F2EF34F00301EB6B0C0EEA6F000137
:1055A00089EC13F023EC06F001C0E6F30301E651A9
:1055B000F00B006E003200323F0E00160050EC0F70
:1055C000E66FE65305E1180E016E020E026E72D010
:1055D0000401336B326B356B070E346F0001E8EC5E
:1055E00005F00301E651E607000AD8B45FD00001D8
:1055F00023EC06F001C0E7F30301E75301E156D0C5
:10560000E72D01D0EFD7E751020835E1E651020856
:1056100001E34CD0E96BE86B000123EC06F001C01C
:10562000E7F30301E75104080AE1000123EC06F067
:1056300001C0E9F323EC06F001C0E8F30301E951EE
:10564000020805E303E1E851170801E32FD0E9510F
:1056500004080BE2FF0A03E1E851B40806E2B40EC5
:10566000016E050E026E26D005D0E8C301F0E9C335
:1056700002F020D01AD0E651010801E317D0000152
:1056800023EC06F001C0E7F30301E751E65D01E218
:105690000DD00401336B326B356BE7C334F400017A
:1056A000E8EC05F00301E751E65F9CD7180E016EA8
:1056B000020E026E000112000D0E0301C625E96EF6
:1056C000000EC721EA6EEFCFD8F3080EC625E96EAB
:1056D000000EC721EA6EEFCFD9F3ECCFDAF3ECCFAF
:1056E000DBF3ECCFDCF3040EC625E96E000EC72118
:1056F000EA6EEFCFDDF3ECCFDEF3ECCFDFF3ECCFF0
:10570000E0F3F80E0101F015F06FF0B917D00001C9
:1057100049EC13F0320E030100240101E76F310E52
:10572000030101200101E86F010E030102200101C4
:10573000E96F000E030103200101EA6FEF51040A33
:10574000000103E0010A4EE0E8D00301D8A506D02D
:10575000000172EC08F044EF34F00301D8A913D033
:10576000DCC37CF1DBC37BF1DAC37AF1D9C379F115
:10577000040EE66FE76B000138EC1CF072EC08F0E9
:1057800044EF34F00301D8A326D0010EDD2501013A
:105790007D6F000E0301DE2101017E6F000E03010B
:1057A000DF2101017F6F000E0301E0210101806F05
:1057B0000001F1DE02C099F101C098F1120E03015F
:1057C000E66F010EE76F000138EC1CF0060E0101D8
:1057D000EF6F05D00301000172EC08F00101000138
:1057E00044EF34F00301D8A504D0000144EF34F0B5
:1057F0000301D8A936D0010179510301D95D0FE128
:1058000001017A510301DA5D0AE101017B510301D3
:10581000DB5D05E101017C510301DC5D22E07CC11F
:10582000E0F37BC1DFF37AC1DEF379C1DDF3DCC3E2
:105830007CF1DBC37BF1DAC37AF1D9C379F1040ED1
:10584000E66F010EE76F000138EC1CF0E0C37CF15D
:10585000DFC37BF1DEC37AF1DDC379F144EF34F0CD
:105860000301D8A357D0010EDD2501017D6F000E85
:105870000301DE2101017E6F000E0301DF21010122
:105880007F6F000E0301E0210101806F0E0E030106
:10589000C625E96E000EC721EA6EECCF88F1ED5205
:1058A000EFCF87F1000177DE02C099F101C098F1D6
:1058B0000301D8A924D0100EE66F010EE76F000196
:1058C00038EC1CF0070E0101EF6F000149EC13F0FA
:1058D000320E030100240101E76F310E03010120A4
:1058E0000101E86F010E030102200101E96F000EC2
:1058F000030103200101EA6FF0990BD00301120E9E
:10590000E66F010EE76F000138EC1CF0060E010196
:10591000EF6F0301000144EF34F0C9C3E2F3C8C3E1
:10592000E1F30301D8A103D0E12BD8B4E22BD8A333
:1059300003D0E12BD8B4E22B0101E651E45D1DE375
:1059400003E1E551E35D19E3DB51DD5D0301E66F42
:105950000101DC51DE590301E76F0101E551E35D0F
:10596000006EE651E459036E00500301E65DD66F08
:105970000350E759D76F10D00101E351E55D0301F2
:10598000E66F0101E451E6590301E76F010EE65DA0
:10599000D66F000EE759D76F01017D510301DD5D20
:1059A000006E01017E510301DE59016E01017F513C
:1059B0000301DF59026E010180510301E059D36FE9
:1059C00002C0D2F301C0D1F300C0D0F3D1C3D5F3EC
:1059D000D0C3D4F3E391E151E211D8B481D0D651D0
:1059E000D711D8B47CD0D3BF0DD0D3530BE1D25351
:1059F00009E1D151D75D06E303E1D651D05D02E262
:105A0000E38143D0E1C300F0E2C301F0026A036A1C
:105A1000E151D025E66FE251D121E76F0250D2214A
:105A2000E86F0350D321E96FE8BE2FD0E95307E1B7
:105A3000E85305E1E75303E1E651000826E2E151AE
:105A4000D65D006EE251D759036E005003C001F0DD
:105A5000026A036A01AE02D002060306D3AF03D086
:105A600003AE12D002D003BE10D0D351035C0DE3BD
:105A70000BE1D251025C09E307E1D151015C05E37E
:105A800003E1D051005C01E3E381D6C300F0D7C34A
:105A900001F0026A036AD3AF03D003AE12D002D082
:105AA00003BE1DD0D351035C1AE30BE1D251025C5B
:105AB00016E307E1D151015C12E303E10050D05D30
:105AC0000EE2E151D425E66FE251D521E76FE8BE41
:105AD00006D0E75303E1E651000801E2E38118D064
